{
  "contractName": "Voting",
  "abi": [
    {
      "inputs": [
        {
          "internalType": "string",
          "name": "candidate1",
          "type": "string"
        },
        {
          "internalType": "string",
          "name": "candidate2",
          "type": "string"
        }
      ],
      "stateMutability": "nonpayable",
      "type": "constructor"
    },
    {
      "anonymous": false,
      "inputs": [
        {
          "indexed": true,
          "internalType": "address",
          "name": "voter",
          "type": "address"
        },
        {
          "indexed": false,
          "internalType": "bytes32",
          "name": "candidateHash",
          "type": "bytes32"
        }
      ],
      "name": "Voted",
      "type": "event"
    },
    {
      "inputs": [
        {
          "internalType": "uint256",
          "name": "",
          "type": "uint256"
        }
      ],
      "name": "candidateHashes",
      "outputs": [
        {
          "internalType": "bytes32",
          "name": "",
          "type": "bytes32"
        }
      ],
      "stateMutability": "view",
      "type": "function",
      "constant": true
    },
    {
      "inputs": [
        {
          "internalType": "address",
          "name": "",
          "type": "address"
        }
      ],
      "name": "hasVoted",
      "outputs": [
        {
          "internalType": "bool",
          "name": "",
          "type": "bool"
        }
      ],
      "stateMutability": "view",
      "type": "function",
      "constant": true
    },
    {
      "inputs": [],
      "name": "owner",
      "outputs": [
        {
          "internalType": "address",
          "name": "",
          "type": "address"
        }
      ],
      "stateMutability": "view",
      "type": "function",
      "constant": true
    },
    {
      "inputs": [
        {
          "internalType": "bytes32",
          "name": "",
          "type": "bytes32"
        }
      ],
      "name": "validCandidates",
      "outputs": [
        {
          "internalType": "bool",
          "name": "",
          "type": "bool"
        }
      ],
      "stateMutability": "view",
      "type": "function",
      "constant": true
    },
    {
      "inputs": [
        {
          "internalType": "bytes32",
          "name": "",
          "type": "bytes32"
        }
      ],
      "name": "votesReceived",
      "outputs": [
        {
          "internalType": "uint256",
          "name": "",
          "type": "uint256"
        }
      ],
      "stateMutability": "view",
      "type": "function",
      "constant": true
    },
    {
      "inputs": [
        {
          "internalType": "string",
          "name": "candidateName",
          "type": "string"
        }
      ],
      "name": "voteForCandidate",
      "outputs": [],
      "stateMutability": "nonpayable",
      "type": "function"
    },
    {
      "inputs": [
        {
          "internalType": "string",
          "name": "candidateName",
          "type": "string"
        }
      ],
      "name": "getVotesForCandidate",
      "outputs": [
        {
          "internalType": "uint256",
          "name": "",
          "type": "uint256"
        }
      ],
      "stateMutability": "view",
      "type": "function",
      "constant": true
    },
    {
      "inputs": [],
      "name": "getCandidateHashes",
      "outputs": [
        {
          "internalType": "bytes32[]",
          "name": "",
          "type": "bytes32[]"
        }
      ],
      "stateMutability": "view",
      "type": "function",
      "constant": true
    },
    {
      "inputs": [
        {
          "internalType": "string",
          "name": "candidateName",
          "type": "string"
        }
      ],
      "name": "isValidCandidate",
      "outputs": [
        {
          "internalType": "bool",
          "name": "",
          "type": "bool"
        }
      ],
      "stateMutability": "view",
      "type": "function",
      "constant": true
    }
  ],
  "bytecode": "0x60806040523480156200001157600080fd5b506040516200111538038062001115833981810160405281019062000037919062000319565b33600460006101000a81548173ffffffffffffffffffffffffffffffffffffffff021916908373ffffffffffffffffffffffffffffffffffffffff1602179055506000826040516020016200008d9190620003eb565b604051602081830303815290604052805190602001209050600082604051602001620000ba9190620003eb565b60405160208183030381529060405280519060200120905060016002600084815260200190815260200160002060006101000a81548160ff02191690831515021790555060016002600083815260200190815260200160002060006101000a81548160ff021916908315150217905550600382908060018154018082558091505060019003906000526020600020016000909190919091505560038190806001815401808255809150506001900390600052602060002001600090919091909150555050505062000404565b6000604051905090565b600080fd5b600080fd5b600080fd5b600080fd5b6000601f19601f8301169050919050565b7f4e487b7100000000000000000000000000000000000000000000000000000000600052604160045260246000fd5b620001ef82620001a4565b810181811067ffffffffffffffff82111715620002115762000210620001b5565b5b80604052505050565b60006200022662000186565b9050620002348282620001e4565b919050565b600067ffffffffffffffff821115620002575762000256620001b5565b5b6200026282620001a4565b9050602081019050919050565b60005b838110156200028f57808201518184015260208101905062000272565b60008484015250505050565b6000620002b2620002ac8462000239565b6200021a565b905082815260208101848484011115620002d157620002d06200019f565b5b620002de8482856200026f565b509392505050565b600082601f830112620002fe57620002fd6200019a565b5b8151620003108482602086016200029b565b91505092915050565b6000806040838503121562000333576200033262000190565b5b600083015167ffffffffffffffff81111562000354576200035362000195565b5b6200036285828601620002e6565b925050602083015167ffffffffffffffff81111562000386576200038562000195565b5b6200039485828601620002e6565b9150509250929050565b600081519050919050565b600081905092915050565b6000620003c1826200039e565b620003cd8185620003a9565b9350620003df8185602086016200026f565b80840191505092915050565b6000620003f98284620003b4565b915081905092915050565b610d0180620004146000396000f3fe608060405234801561001057600080fd5b50600436106100935760003560e01c806363376c4a1161006657806363376c4a146101465780636ff15627146101765780637021939f146101a65780638da5cb5b146101d6578063e89927ef146101f457610093565b806309eef43e1461009857806315444bc4146100c85780633390b9c2146100e657806351b9887d14610116575b600080fd5b6100b260048036038101906100ad9190610661565b610210565b6040516100bf91906106a9565b60405180910390f35b6100d0610230565b6040516100dd919061078c565b60405180910390f35b61010060048036038101906100fb91906107da565b610288565b60405161010d91906106a9565b60405180910390f35b610130600480360381019061012b919061094d565b6102a8565b60405161013d91906106a9565b60405180910390f35b610160600480360381019061015b91906109cc565b6102fd565b60405161016d9190610a08565b60405180910390f35b610190600480360381019061018b919061094d565b610321565b60405161019d9190610a32565b60405180910390f35b6101c060048036038101906101bb91906107da565b6103c8565b6040516101cd9190610a32565b60405180910390f35b6101de6103e0565b6040516101eb9190610a5c565b60405180910390f35b61020e6004803603810190610209919061094d565b610406565b005b60016020528060005260406000206000915054906101000a900460ff1681565b6060600380548060200260200160405190810160405280929190818152602001828054801561027e57602002820191906000526020600020905b81548152602001906001019080831161026a575b5050505050905090565b60026020528060005260406000206000915054906101000a900460ff1681565b600080826040516020016102bc9190610ae8565b6040516020818303038152906040528051906020012090506002600082815260200190815260200160002060009054906101000a900460ff16915050919050565b6003818154811061030d57600080fd5b906000526020600020016000915090505481565b600080826040516020016103359190610ae8565b6040516020818303038152906040528051906020012090506002600082815260200190815260200160002060009054906101000a900460ff166103ad576040517f08c379a00000000000000000000000000000000000000000000000000000000081526004016103a490610b5c565b60405180910390fd5b60008082815260200190815260200160002054915050919050565b60006020528060005260406000206000915090505481565b600460009054906101000a900473ffffffffffffffffffffffffffffffffffffffff1681565b6000816040516020016104199190610ae8565b6040516020818303038152906040528051906020012090506002600082815260200190815260200160002060009054906101000a900460ff16610491576040517f08c379a000000000000000000000000000000000000000000000000000000000815260040161048890610bc8565b60405180910390fd5b600160003373ffffffffffffffffffffffffffffffffffffffff1673ffffffffffffffffffffffffffffffffffffffff16815260200190815260200160002060009054906101000a900460ff161561051e576040517f08c379a000000000000000000000000000000000000000000000000000000000815260040161051590610c34565b60405180910390fd5b600080828152602001908152602001600020600081548092919061054190610c83565b919050555060018060003373ffffffffffffffffffffffffffffffffffffffff1673ffffffffffffffffffffffffffffffffffffffff16815260200190815260200160002060006101000a81548160ff0219169083151502179055503373ffffffffffffffffffffffffffffffffffffffff167fc78796858497f000f0a77d7f0c624bbaf635bf26239188e8fba52c571db2398d826040516105e39190610a08565b60405180910390a25050565b6000604051905090565b600080fd5b600080fd5b600073ffffffffffffffffffffffffffffffffffffffff82169050919050565b600061062e82610603565b9050919050565b61063e81610623565b811461064957600080fd5b50565b60008135905061065b81610635565b92915050565b600060208284031215610677576106766105f9565b5b60006106858482850161064c565b91505092915050565b60008115159050919050565b6106a38161068e565b82525050565b60006020820190506106be600083018461069a565b92915050565b600081519050919050565b600082825260208201905092915050565b6000819050602082019050919050565b6000819050919050565b610703816106f0565b82525050565b600061071583836106fa565b60208301905092915050565b6000602082019050919050565b6000610739826106c4565b61074381856106cf565b935061074e836106e0565b8060005b8381101561077f5781516107668882610709565b975061077183610721565b925050600181019050610752565b5085935050505092915050565b600060208201905081810360008301526107a6818461072e565b905092915050565b6107b7816106f0565b81146107c257600080fd5b50565b6000813590506107d4816107ae565b92915050565b6000602082840312156107f0576107ef6105f9565b5b60006107fe848285016107c5565b91505092915050565b600080fd5b600080fd5b6000601f19601f8301169050919050565b7f4e487b7100000000000000000000000000000000000000000000000000000000600052604160045260246000fd5b61085a82610811565b810181811067ffffffffffffffff8211171561087957610878610822565b5b80604052505050565b600061088c6105ef565b90506108988282610851565b919050565b600067ffffffffffffffff8211156108b8576108b7610822565b5b6108c182610811565b9050602081019050919050565b82818337600083830152505050565b60006108f06108eb8461089d565b610882565b90508281526020810184848401111561090c5761090b61080c565b5b6109178482856108ce565b509392505050565b600082601f83011261093457610933610807565b5b81356109448482602086016108dd565b91505092915050565b600060208284031215610963576109626105f9565b5b600082013567ffffffffffffffff811115610981576109806105fe565b5b61098d8482850161091f565b91505092915050565b6000819050919050565b6109a981610996565b81146109b457600080fd5b50565b6000813590506109c6816109a0565b92915050565b6000602082840312156109e2576109e16105f9565b5b60006109f0848285016109b7565b91505092915050565b610a02816106f0565b82525050565b6000602082019050610a1d60008301846109f9565b92915050565b610a2c81610996565b82525050565b6000602082019050610a476000830184610a23565b92915050565b610a5681610623565b82525050565b6000602082019050610a716000830184610a4d565b92915050565b600081519050919050565b600081905092915050565b60005b83811015610aab578082015181840152602081019050610a90565b60008484015250505050565b6000610ac282610a77565b610acc8185610a82565b9350610adc818560208601610a8d565b80840191505092915050565b6000610af48284610ab7565b915081905092915050565b600082825260208201905092915050565b7f496e76616c69642063616e646964617465000000000000000000000000000000600082015250565b6000610b46601183610aff565b9150610b5182610b10565b602082019050919050565b60006020820190508181036000830152610b7581610b39565b9050919050565b7f496e76616c69642063616e6469646174652073656c6563746564000000000000600082015250565b6000610bb2601a83610aff565b9150610bbd82610b7c565b602082019050919050565b60006020820190508181036000830152610be181610ba5565b9050919050565b7f416c726561647920766f74656400000000000000000000000000000000000000600082015250565b6000610c1e600d83610aff565b9150610c2982610be8565b602082019050919050565b60006020820190508181036000830152610c4d81610c11565b9050919050565b7f4e487b7100000000000000000000000000000000000000000000000000000000600052601160045260246000fd5b6000610c8e82610996565b91507fffffffffffffffffffffffffffffffffffffffffffffffffffffffffffffffff8203610cc057610cbf610c54565b5b60018201905091905056fea26469706673582212201ff2d4efda23a15d000cc6eefcfe9a33cec12a533a0bc2b496437e65290e294e64736f6c63430008130033",
  "immutableReferences": {},
  "source": "// SPDX-License-Identifier: MIT\r\npragma solidity ^0.8.19;\r\n\r\ncontract Voting {\r\n    mapping(bytes32 => uint256) public votesReceived; // Store votes for each candidate hash\r\n    mapping(address => bool) public hasVoted  ;\r\n    mapping(bytes32 => bool) public validCandidates; // Track valid candidate hashes\r\n    bytes32[] public candidateHashes; // Store all candidate hashes\r\n\r\n    address public owner;\r\n\r\n    event Voted(address indexed voter, bytes32 candidateHash);\r\n\r\n    // Constructor accepts two individual candidate names\r\n    constructor(string memory candidate1, string memory candidate2) {\r\n        owner = msg.sender;\r\n        \r\n        // Add candidates during deployment and hash their names\r\n        bytes32 candidateHash1 = keccak256(abi.encodePacked(candidate1));\r\n        bytes32 candidateHash2 = keccak256(abi.encodePacked(candidate2));\r\n\r\n        validCandidates[candidateHash1] = true;\r\n        validCandidates[candidateHash2] = true;\r\n\r\n        candidateHashes.push(candidateHash1);\r\n        candidateHashes.push(candidateHash2);\r\n    }\r\n\r\n    // Vote for a candidate using their name as a string, which is then hashed to bytes32\r\n    function voteForCandidate(string memory candidateName) public {\r\n        bytes32 candidateHash = keccak256(abi.encodePacked(candidateName));\r\n\r\n        require(validCandidates[candidateHash], \"Invalid candidate selected\");\r\n        require(!hasVoted[msg.sender], \"Already voted\");\r\n\r\n        votesReceived[candidateHash]++;\r\n        hasVoted[msg.sender] = true;\r\n\r\n        emit Voted(msg.sender, candidateHash);\r\n    }\r\n\r\n    // Get votes for a candidate using their name as a string\r\n    function getVotesForCandidate(string memory candidateName) public view returns (uint256) {\r\n        bytes32 candidateHash = keccak256(abi.encodePacked(candidateName));\r\n\r\n        require(validCandidates[candidateHash], \"Invalid candidate\");\r\n\r\n        return votesReceived[candidateHash];\r\n    }\r\n\r\n    // Get all candidate hashes\r\n    function getCandidateHashes() public view returns (bytes32[] memory) {\r\n        return candidateHashes;\r\n    }\r\n\r\n    // Check if the candidate is valid using their name as a string\r\n    function isValidCandidate(string memory candidateName) public view returns (bool) {\r\n        bytes32 candidateHash = keccak256(abi.encodePacked(candidateName));\r\n        return validCandidates[candidateHash];\r\n    }\r\n   \r\n    \r\n\r\n}\r\n\r\n",
  "sourcePath": "C:\\Users\\Hp\\Downloads\\projetblockchain\\contracts\\Voting.sol",
  "compiler": {
    "name": "solc",
    "version": "0.8.19+commit.7dd6d404.Emscripten.clang"
  },
  "schemaVersion": "3.4.16",
  "updatedAt": "2025-05-09T17:12:01.497Z",
  "networkType": "ethereum",
  "devdoc": {
    "kind": "dev",
    "methods": {},
    "version": 1
  },
  "userdoc": {
    "kind": "user",
    "methods": {},
    "version": 1
  }
}